:020000040000FA
:020000000528D1
:040002000034003492
:08000800A228831603178801EA
:100010008901081483160313013085000F30860010
:100020008701880189010F3096009F179F121F12C8
:1000300026309800193099009A0183120313850124
:1000400086018701880189011F149817840104081B
:10005000203E8400800104087F3C03193128840A73
:100060002A282030FD00FE00FF3088003921392188
:100070000030880039213921FF30880039213921A9
:100080000030880039213921FF3088003921392199
:100090000030880039213921013088003921392187
:1000A000880D031C4E288030880003103921392127
:1000B000880C031C56288801392139217E288207A3
:1000C0000134023404340834103420344034803491
:1000D0008207F134FF34F234F634FC34F434F03473
:1000E000FF34F034FC3482078F34CF34AF348F3494
:1000F000CF349F349F348F348F348F348B137910E7
:10010000F12015211C21A620FF308800392188010B
:100110003921061C00000B108B158B177E088400FC
:1001200091284521791C91287E280F307805303E92
:1001300099002F21880139213921FF308800392188
:1001400039219A28BB20E6200B100900F80A78080C
:100150000F390A3C0319B1207808103C0319B62066
:1001600008000A30F8021030F8070800F8012030C3
:10017000FE00FD000800FB01EF30FC00FA017C08E6
:100180008600861DD628DC20061DD628DC20861C8D
:10019000D628DC20061CD628FC0D0130FB070430D5
:1001A0007B02031DBE28FF30FA0808007B08000010
:1001B000FA07DF20392108000430FA070800860119
:1001C00006080F390F3A03190800DF287A085F2064
:1001D0000002031D9528840A7D080402031979147E
:1001E00008009F149F18F228831603131E08013974
:1001F00083120313FF009F149F18FC288316031318
:1002000001309E0503101E0D83120313FF079F1478
:100210009F1808298316031301309E0503109E0DB5
:100220001E0D83120313FF0708007D088400FD0ADA
:100230007F085F20800008007E0884000008880096
:1002400039213921392139218801392139213921AF
:100250003921840A7D080402031908001E29D830B8
:100260008F00F0308E000C1010140C1C352910106B
:1002700008000A30FF002F21FF0B3B290800053042
:10028000FF003921FF0B4129080009108910780867
:100290000F397320850078080F396820870009140A
:1002A00089102F21091089107808F039FF000310F8
:1002B000FF0CFF0CFF0CFF0C7F08732085007F08EC
:0E02C0006820870009108914FF012F21080013
:02400E00F42F8D
:00000001FF
